:060000000A128A11122809
:10000800FE00030EF0000408F1000A08F200831253
:1000180003137F08F3000A128A15212C0A128A1189
:1000280015288313BC30FD000830FE00DC30FF00CB
:10003800A03084000A128A15B6200A128A116E307E
:10004800FD000830FE008D30FF00673084000A1282
:100058008A15B62083160313BC01BD01BE01BF017A
:10006800C001C101C20183120313E001E101E201F1
:10007800E301E401E501E601F801F90183010A124F
:100088008A111C2E831203132D08B0002E08B1000C
:100098002F08B2000310310D320DB3003308B80039
:1000A8003808031D5E280030AA000030AB0000307D
:1000B800AC0008002A08B0002B08B1002C08B200D8
:1000C8000310310D320DB3003308B9003908031D90
:1000D80074280030AA000030AB000030AC000800E3
:1000E8000030B5000030B6000030B700893039075D
:1000F800B0003008B8022D08B0002E08B1002F0853
:10010800B20010300310B20CB10CB00CFF3E031D4E
:1001180086283008B3003308B9002A08B0002B0835
:10012800B1002C08B20010300310B20CB10CB00CA6
:10013800FF3E031D98283008B3003308B906803005
:10014800B0003008B905AE17FF30AD05FF30AE0579
:100158000030AF05AB17FF30AA05FF30AB05003004
:10016800AC051830B0003008B40001300310B50DEC
:10017800B60DB70DFF3E031DBA282C082F02031D2C
:10018800CB282B082E02031DCB282A082D02031C7E
:10019800D8282A08AD022B08031C2B0FAE022C0806
:1001A800031C2C0AAF02351401300310AD0DAE0D3F
:1001B800AF0DFF3E031DD9280130B402031DB92835
:1001C8003508A0003608A1003708A2003808B0009A
:1001D8003008A3003908B1003108A4000A128A15B2
:1001E8002523831203132008AA002108AB00220844
:0401F800AC0008004F
:10020000FF1B0A2983137F1883170008840A031928
:10021000FF0A08007F087F398A000408840A03194E
:10022000FF0A82000034003400340034003400340B
:10023000003400340034003400340034003400341E
:10024000003400340034003400340034003400340E
:1002500000340034003400340034003400340034FE
:1002600000340034003400340034003400340034EE
:1002700000340034003400340034003400340034DE
:1002800000340034003400340034003400340034CE
:1002900000340034003400340034003400340034BE
:1002A00000340034003400340034003400340034AE
:1002B000003400340034003400340034003400349E
:1002C000003400340034003400340034003400348E
:1002D000003400340034003400340034003400347E
:1002E000003400340034003400340034003400346E
:1002F000003400340034003400340034003400345E
:10030000003400340034003400340034003400344D
:10031000003400340034003400340034003400343D
:10032000003400340034003400340034003400342D
:10033000003400340034003400340034003400341D
:10034000003400340034003400340034003400340D
:1003500000340034003400340034003400340034FD
:1003600000340034003400340034003400340034ED
:1003700000345F3400340034003407340034073470
:10038000003414347F3414347F34143424342A3445
:100390007F342A34123423341334083464346234FE
:1003A000363449345534223450340034053403345F
:1003B0000034003400341C3422344134003400341E
:1003C000413422341C34003408342A341C342A3496
:1003D0000834083408343E340834083400345034C7
:1003E0003034003400340834083408340834083415
:1003F0000034603460340034003420341034083465
:10040000043402343E345134493445343E340034EB
:1004100042347F34403400344234613451344934FE
:1004200046342134413445344B3431341834143497
:1004300012347F341034273445344534453439344C
:100440003C344A3449344934303401347134093449
:1004500005340334363449344934493436340634A7
:100460004934493429341E340034363436340034A7
:100470000034003456343634003400340034083448
:1004800014342234413414341434143414341434F1
:1004900041342234143408340034023401345134E9
:1004A0000934063432344934793441343E347E34AC
:1004B0001134113411347E347F3449344934493491
:1004C00036343E3441344134413422347F34413473
:1004D000413422341C347F34493449344934413462
:1004E0007F3409340934013401343E344134413419
:1004F000513432347F340834083408347F340034C3
:1005000041347F34413400342034403441343F346A
:1005100001347F3408341434223441347F3440347D
:100520004034403440347F340234043402347F3465
:100530007F340434083410347F343E344134413441
:1005400041343E347F3409340934093406343E34AE
:100550004134513421345E347F3409341934293420
:100560004634463449344934493431340134013451
:100570007F34013401343F344034403440343F341C
:100580001F342034403420341F347F342034183456
:1005900020347F3463341434083414346334033423
:1005A00004347834043403346134513449344534E8
:1005B0004334003400340034003400340234043452
:1005C0000834103420340034003400340034003453
:1005D00004340234013402340434403440344034AE
:1005E00040344034003401340234043400342034C4
:1005F00054345434543478347F3448344434443498
:100600003834383444344434443420343834443472
:10061000443448347F3438345434543454341834E3
:1006200008347E3409340134023408341434543428
:1006300054343C347F340834043404347834003483
:1006400044347D34403400342034403444343D3428
:10065000003400347F3410342834443400344134BE
:100660007F34403400347C34043418340434783417
:100670007C34083404340434783438344434443416
:10068000443438347C341434143414340834083486
:100690001434143418347C347C3408340434043472
:1006A00008344834543454345434203404343F34FB
:1006B0004434403420343C344034403420347C349E
:1006C0001C342034403420341C343C344034303426
:1006D00040343C34443428341034283444340C340A
:1006E0005034503450343C344434643454344C34F6
:1006F0004434003408343634413400340034003497
:100700007F3400340034003441343634083400344B
:10071000023401340234043402340034003400342E
:100720000034003400340034003400340034003429
:100730000034003400340034003400340034003419
:100740000034003400340034003400340034003409
:1007500000340034003400340034003400340034F9
:1007600000340034003400340034003400340034E9
:1007700000340034003400340034003400340034D9
:1007800000340034003400340034003400340034C9
:1007900000340034003400340034003400340034B9
:1007A00000340034003400340034003400340034A9
:1007B0000034003400340034003400340034003499
:1007C0000034003400340034003400340034003489
:1007D0000034003400340034003400340034003479
:1007E0000034003400340034003400340034003469
:1007F0000034003400340034003400340034003459
:100800000034003400340034003400340034003448
:100810000034003400340034003400340034003438
:100820000034003400340034003400340034003428
:100830000034003400340034003400340034003418
:100840000034003400340034003400340034003408
:1008500000340034003400340034003400340034F8
:1008600000340034003400340034003400340034E8
:1008700000340034003400340034003400340034D8
:1008800000340034003400340034003400340034C8
:1008900000340034003400340034003400340034B8
:1008A00000340034003400340034003400340034A8
:1008B0000034003400340034003400340034003498
:1008C0000034003400340034003400340034003488
:1008D0000034003400340034003400340034003478
:1008E0000034003400340034003400340034003468
:1008F0000034003400340034003400340034003458
:100900000034003400340034073405340734003434
:100910000034003400340034003400340034003437
:100920000034003400340034003400340034003427
:100930000034003400340034003400340034003417
:100940000034003400340034003400340034003407
:1009500000340034003400340034003400340034F7
:1009600000340034003400340034003400340034E7
:1009700000340034003400340034003400340034D7
:1009800000340034003400340034003400340034C7
:1009900000340034003400340034003400340034B7
:1009A000003400347E341134113411347E347F34F9
:1009B00049344934493433347F344934493449342F
:1009C00036347F340134013401340334E03451349B
:1009D0004F344134FF347F34493449344934493445
:1009E000773408347F34083477344934493449340F
:1009F000493436347F341034083404347F347C3442
:100A00002134123409347C347F34083414342234D1
:100A10004134203441343F3401347F347F34023454
:100A20000C3402347F347F340834083408347F3483
:100A30003E344134413441343E347F340134013456
:100A400001347F347F3409340934093406343E34A8
:100A50004134413441342234013401347F3401348F
:100A6000013427344834483448343F341C34223469
:100A70007F3422341C346334143408341434633423
:100A80007F34403440344034FF3407340834083471
:100A900008347F347F3440347F3440347F347F34B3
:100AA00040347F344034FF3401347F344834483498
:100AB00030347F344834303400347F347F34483429
:100AC00048343034003422344134493449343E34DB
:100AD0007F3408343E3441343E34463429341934AA
:100AE00009347F34203454345434543478343C340E
:100AF0004A344A34493431347C34543454342834FC
:100B000000347C340434043404340C34E03454347D
:100B10004C344434FC34383454345434543408346D
:100B20006C3410347C3410346C34443444345434D5
:100B3000543428347C342034103408347C347834F1
:100B400042342434123478347C341034283444341D
:100B50000034203444343C3404347C347C34083451
:100B6000103408347C347C341034103410347C3429
:100B7000383444344434443438347C340434043415
:100B800004347C347C34143414341434083438344D
:100B90004434443444344434043404347C3404341D
:100BA00004340C345034503450343C34183424342D
:100BB0007E342434183444342834103428344434F3
:100BC0007C34403440344034FC340C341034103421
:100BD00010347C347C3440347C3440347C347C3479
:100BE00040347C344034FC3404347C34503450344D
:100BF00020347C345034203400347C347C34503401
:100C00005034203400342834443454345434383488
:100C10007C34103438344434383408345434343464
:100C200014347C3430343134323433343434353465
:100C300036343734383439348316031305108510AD
:100C40000511851105128601FF30831203138600FA
:100C5000860183160313071587110712871287135E
:100C600081110111811001148B1281120112831262
:100C70000313901210129015101490108316031382
:100C80000C10BC012C308400BC3083120313DC0038
:100C90000408DD000730DE005C08840083130008D0
:100CA000DF00DC0A5D0884005F088000DD0ADE0BDF
:100CB0004C2E0A128A1569260A128A11831603130A
:100CC000BC01BC0A023083120313DC005C088316EB
:100CD0000313BC002C308400BC3083120313DC00EF
:100CE0000408DD000730DE005C0884008313000880
:100CF000DF00DC0A5D0884005F088000DD0ADE0B8F
:100D0000742E0A128A1569260A128A110530831276
:100D100003139700831603130C158B170B17003062
:100D2000C6000030C5000030C4000030C30083128C
:100D300003138716003083160313C6000030C50066
:100D40000330C400E830C300013083120313DC0019
:100D50000030DD000030DE000030DF005C0883166C
:100D60000313C302831203135D08031C5D0FB92E26
:100D7000BC2E83160313C402831203135E08031CE4
:100D80005E0FC32EC62E83160313C50283120313F0
:100D90005F08031C5F0FCD2ED02E83160313C602EF
:100DA00083120313831603134608450444044304C3
:100DB000031DA42E8312031387120030831603131E
:100DC000C6000030C5000330C400E830C300013065
:100DD00083120313DC000030DD000030DE00003041
:100DE000DF005C0883160313C302831203135D083C
:100DF000031C5D0FFC2EFF2E83160313C402831207
:100E000003135E08031C5E0F062F092F83160313BE
:100E1000C502831203135F08031C5F0F102F132FEB
:100E200083160313C60283120313831603134608A3
:100E3000450444044304031DE72E83120313690889
:100E4000031D972EE901E90A67300A128A15BF22AD
:100E50000A128A11831203132F08E6002E08E500F8
:100E60002D08E4002C08E30067086804031DC42F64
:100E7000E701E8012430BA007430BB004930BC00FF
:100E80006608A8006508A7006408A6006308A50016
:100E90000A128A1569210A128A118312031325087E
:100EA000AA002608AB002708AC00DD30AD00B43046
:100EB000AE003F30AF000A128A1146200A128A1192
:100EC000831203132A08BD002B08BE002C08BF00A4
:100ED0000A128A15B8240A128A11831203133A08D7
:100EE000E0003B08E1003C08E2006630BA006630F2
:100EF000BB004030BC006008BD006108BE00620855
:100F0000BF000A128A15B8240A128A118312031329
:100F10003A08E0003B08E1003C08E2006008F40009
:100F20006108F5006208F6000A128A1593230A1276
:100F30008A11750883160313C2007408C1000530B6
:100F400083120313DC005C0883160313BC002C30EF
:100F50008400BC3083120313DC000408DD0007307A
:100F6000DE005C08840083130008DF00DC0A5D08F3
:100F700084005F088000DD0ADE0BB12F0A128A159B
:100F800069260A128A11972E013083120313E7078C
:100F90000318E80A0030E807972E83120313A40011
:100FA0002408B0380A128A15F8200A128A11103063
:100FB00083120313A2002208A500A60177080F39A7
:100FC000A2002208A6007708A20004300310A20C99
:100FD000FF3E031DE62F220807391038A30023081F
:100FE000A50025080A128A15F8200A128A11831210
:0C0FF000031326080A128A15F8200800D6
:10111A000034003401340034003400340034D03058
:10112A00F4000730F5007408750403190800FF304D
:10113A00F4070318F50AFF30F5079828A030F400E1
:10114A000F30F5007408750403190800FF30F4071E
:10115A000318F50AFF30F507A7287E088A007F08DA
:10116A008200B2200A128A158000840A04087D06C9
:10117A0003190034FF0A0319FE0AB628F500831280
:10118A000313861006158614F60108307602031832
:10119A0008008610F51FD3280615D42806118614D0
:1011AA000310F50D0130F4007408F607CA28533409
:1011BA007034653465346434203420342034203467
:1011CA0020342034203420342034203420340A348B
:1011DA00003420343234323420346B346D342F34BA
:1011EA0068340A34003483120313A0000A128A15E1
:1011FA0094200A128A158312031386100611861484
:10120A00A10108302102031808008610A01F0F2927
:10121A0006151029061186140310A00D0130F600D8
:10122A007608A107062983120313A001A101741CE1
:10123A002629760883120313A0070318A10A770840
:10124A00A10701300310F60DF70DFF3E031D2729F4
:10125A0001300310F50CF40CFF3E031D2E2974080F
:10126A007504031D1C29831203132108F5002008A5
:10127A00F400080083120313AA00A801A901280890
:10128A002A07A700270884000A30831300060319D7
:10129A00080028082A07A7002708840083130008E3
:1012AA000A128A158B250A128A1500300A128A1523
:1012BA00C3200A128A15013083120313A8070318E0
:1012CA00A90A0030A90744298E30F700770883124B
:1012DA000313A900FF3028050319812901300310DF
:1012EA00A80CA70CA60CA50CFF3E031D74290130FF
:1012FA00F7007708A9076F292508A0002608A1008A
:10130A002708A2002908F7007708A300A4010A12F7
:10131A008A152523831203132008A5002108A60095
:10132A002208A700080083120313A201A30174086C
:10133A0075040319D129A101A10AF51BB0290130AD
:10134A000310F40DF50DFF3E031DA5290130A00081
:10135A002008A107A22901300310A20DA30DFF3E08
:10136A00031DB12975087702031DBD297408760289
:10137A00031CC6297408F6027508031CF703F70252
:10138A00221401300310F50CF40CFF3E031DC7298B
:10139A000130A102031DB0292308F5002208F40038
:1013AA000800003083120313AB000030AA0000309B
:1013BA00A9000030A800201CF6292408A80725083F
:1013CA0003110318013E031DA90726080311031878
:1013DA00013E031DAA07270803110318013E031D36
:1013EA00AB070130F4000310A40DA50DA60DA70D3F
:1013FA00F40BF82901300310A30CA20CA10CA00CC9
:10140A00FF3E031D002A2308220421042004031D91
:10141A00E0292B08A3002A08A2002908A10028080D
:10142A00A000080083120313AB01A81F232AA709EF
:10143A00A809A70A0319A80AAB01AB0AA61F2A2AF8
:10144A00A509A609A50A0319A60A25082604031947
:10145A00572AAA01AA0AA61B3E2A01300310A50D83
:10146A00A60DFF3E031D332A0130A9002908AA0749
:10147A00302A26082802031D442A25082702031CAD
:10148A004C2A2508A7022608031CA803A802013033
:10149A000310A60CA50CFF3E031D4D2A0130AA021B
:1014AA00031D3E2A2B0803195F2AA709A809A70AC0
:1014BA000319A80A2808A6002708A500080083120D
:1014CA000313A201F51F702AF409F509F40A031996
:1014DA00F50AA201A20AF71F7B2AF609F709F60AFA
:1014EA000319F70A0130A0002008A206A301A401EB
:1014FA00740875040319B22AA101A10AF51B912ADD
:10150A0001300310F40DF50DFF3E031D862A01304C
:10151A00A0002008A107832A01300310A30DA40DFF
:10152A00FF3E031D922A75087702031D9E2A74083E
:10153A007602031CA72A7408F6027508031CF7032F
:10154A00F702231401300310F50CF40CFF3E031DBF
:10155A00A82A0130A102031D912A22080319BA2AD6
:10156A00A309A409A30A0319A40A2408F500230855
:10157A00F400080083120313BA000030B9000030E7
:10158A00B8000030B7000030B6000530F400003073
:10159A00F5003A08053E840083130008F600840A21
:1015AA000008F7000A128A1598210A128A15740887
:1015BA0083120313B0007508B100B201B3013A08EF
:1015CA00033E840083130008B400840A0008B500AF
:1015DA003408A0003508A100A201A3010030A70029
:1015EA000030A6003330A5003330A4000A128A1551
:1015FA00D6210A128A15831203132008B00721087C
:10160A000318210F092B0A2BB10722080318220FEE
:10161A000F2B102BB20723080318230AB30733082A
:10162A00B9003208B8003108B7003008B6003908E6
:10163A00AF003808AE003708AD003608AC00080025
:10164A0083120313230803192F2B220821042004D1
:10165A00031D422B0030A0000030A1000030A20080
:10166A0008000130F4007408A30701300310A20C2B
:10167A00A10CA00CFF3E031D3B2BFE3022050319D3
:10168A005D2B362B0130F4007408A3070130A00744
:10169A00003003180130A107003003180130A207F7
:1016AA0001300310A20CA10CA00CFF3E031D562B07
:1016BA00FF30220503196C2B472B0130A30201309E
:1016CA000310A00DA10DA20DFF3E031D652BA11B4A
:1016DA00722B023023020318622B23187A2BFF3055
:1016EA00A0057F30A105FF30A2050310A30C230833
:1016FA00F400F501F60110300310F40DF50DF60DA6
:10170A00FF3E031D812B7408A0047508A104760806
:10171A00A204240803190800A217080074088312F7
:10172A000313A0007508A1007608A2000310210D7A
:10173A00220DA3002308A9002908031DAD2B0030A0
:10174A00F7000030F6000030F5000030F400080021
:10175A007408A0007508A1007608A20017300310CB
:10176A00A20CA10CA00CFF3E031DB42B2008A30061
:10177A002308A400F517FF30F405FF30F505003003
:10178A00F6057408A5007508A6007608A700A80142
:10179A008E30A902A91FEF2B2908803A8F3E031821
:1017AA00DF2B0030F7000030F6000030F500003083
:1017BA00F400080001300310A80CA70CA60CA50C15
:1017CA00FF3E031DE02B0130A0002008A9070319E2
:1017DA000A2CDF2B18302902031C072C0030F700D3
:1017EA000030F6000030F5000030F4000800013047
:1017FA00A0000310A50DA60DA70DA80DA00BFE2B8A
:10180A000130A9022908031DFC2B24080319182CEE
:10181A00A509A609A709A809A50A0319A60A031969
:10182A00A70A0319A80A2808F7002708F6002608B5
:10183A00F5002508F40008000B198B1E2B2C8711C4
:10184A000B118B120C11831603130C1583120C1D2A
:10185A00752C831603130C1D752C8312031387151D
:10186A000B110C3081008B160310071E0314031C86
:10187A00422C831203130716452C831203130712F3
:10188A000C11831603130C11023078067904031D18
:10189A00572C9C3083120313160241300319150288
:1018AA0003185E2C00307902033003197802031CF6
:1018BA00722C79088312EB007808EA001608ED000A
:1018CA001508EC00E9018E018F01950196010C10B3
:1018DA00831603130C14F801F901831603130C146D
:1018EA0083120C1CAC2C831603130C1CAC2C031097
:1018FA0083120313871F0314031C872C83120313F9
:10190A0087178A2C8312031387130C100130F807E8
:10191A000318F90A0030F9070130790286300319F1
:10192A007802031CAC2C6903031DAC2C0C10831623
:10193A0003130C10831203138E018F019501960174
:10194A00F801F901EA01EB01EC01ED01E901730883
:10195A008312FF0072088A0071088400700E8300E7
:10196A00FE0E7E0E0900831203133A08C0003B08DC
:10197A00C1003C08C2000310410D420DC3004308D8
:10198A00C4004408031DD02C0030BA000030BB004C
:10199A000030BC0008003D08C0003E08C1003F08F6
:1019AA00C2000310410D420DC3004308C900490893
:1019BA00031DE62C0030BA000030BB000030BC002A
:1019CA00080049087B3EC0004008C4073A08C00026
:1019DA003B08C1003C08C20010300310C20CC10C05
:1019EA00C00CFF3E031DF22C4008C3004308C90087
:1019FA003D08C0003E08C1003F08C2001030031075
:101A0A00C20CC10CC00CFF3E031D042D4008C300CC
:101A1A004308C9068030C0004008C905BB17BE1775
:101A2A00FF30BD05FF30BE050030BF050030C500E0
:101A3A000030C6000030C7000730C0004008C800A8
:101A4A003A1C352D3D08C5073E08031103183E0A06
:101A5A00031DC6073F08031103183F0A031DC707E2
:101A6A0001300310BC0CBB0CBA0CFF3E031D362D13
:101A7A0001300310BD0DBE0DBF0DFF3E031D3E2DEF
:101A8A000130C802031D252D0930C0004008C800D6
:101A9A003A1C5D2D3D08C5073E08031103183E0A8E
:101AAA00031DC6073F08031103183F0A031DC70792
:101ABA0001300310BC0CBB0CBA0CFF3E031D5E2D9B
:101ACA0001300310C70CC60CC50CFF3E031D662D62
:101ADA000130C802031D4D2D4508A0004608A1008B
:101AEA004708A2004408C0004008A3004908C100F2
:101AFA004108A4000A128A15252383120313200819
:101B0A00BA002108BB002208BC0008008312031394
:101B1A00A6002608A200A3012208F4002308F50063
:101B2A000530F6000030F7000A128A1518210A1249
:101B3A008A158130750783120313FF001230740768
:101B4A0084000318FF0A0A128A1100210A128A1550
:101B5A000A128A15C3200A128A1583120313260849
:101B6A00A200A3012208F4002308F5000530F600BC
:101B7A000030F7000A128A1518210A128A15740809
:101B8A00013E83120313A40075080318013E003EA8
:101B9A00A50081302507FF001230240784000318AE
:101BAA00FF0A0A128A1100210A128A150A128A15D4
:101BBA00C3200A128A15831203132608A200A3015E
:101BCA002208F4002308F5000530F6000030F7007B
:101BDA000A128A1518210A128A157408023E8312FB
:101BEA000313A40075080318013E003EA5008130C6
:101BFA002507FF001230240784000318FF0A0A127F
:101C0A008A1100210A128A150A128A15C3200A1299
:101C1A008A15831203132608A200A3012208F400DE
:101C2A002308F5000530F6000030F7000A128A157D
:101C3A0018210A128A157408033E83120313A4009A
:101C4A0075080318013E003EA50081302507FF00F4
:101C5A001230240784000318FF0A0A128A1100218D
:101C6A000A128A150A128A15C3200A128A158312C1
:101C7A0003132608A200A3012208F4002308F50092
:101C8A000530F6000030F7000A128A1518210A12E8
:101C9A008A157408043E83120313A40075080318F6
:101CAA00013E003EA50081302507FF0012302407BF
:101CBA0084000318FF0A0A128A1100210A128A15DF
:101CCA000A128A15C3200800831203132C08031D65
:101CDA00C02E061406120A128A15A3200A128A15A1
:101CEA0083120313861106160A128A15A3200A12F2
:101CFA008A15E2300A128A15F8200A128A1520304B
:101D0A000A128A15F8200A128A1590300A128A15C0
:101D1A00F8200A128A15A4300A128A15F8200A1223
:101D2A008A15E1300A128A15F8200A128A158030BB
:101D3A000A128A15F8200A128A152F300A128A15F1
:101D4A00F8200A128A15EF300A128A15F8200A12A8
:101D5A008A1500300A128A15F8200A128A15AF303D
:101D6A000A128A15F8200A128A15F70100300A1297
:101D7A008A11CD270800831203132C03031DEA2EB0
:101D8A00F70100300A128A11CD270A128A15831226
:101D9A000313D901DA015A08803AFF0083307F021F
:101DAA00031DD92E003059020318080000300A1208
:101DBA008A15C3200A128A15013083120313D90720
:101DCA000318DA0A0030DA07D02E0230831203131E
:101DDA002C06031D112F37308400A030B3000408ED
:101DEA00B4001230B5003308840083130008B6002B
:101DFA00B30A3408840036088000B40AB50BF82EFA
:101E0A00F70100300A128A11CD270A128A153730D3
:101E1A000A128A153F2108000530831203132C0683
:101E2A00031DC52F49308400B230B3000408B40042
:101E3A000A30B5003308840083130008B600B30AD9
:101E4A003408840036088000B40AB50B1F2FD3016A
:101E5A00D401D501D601D701D8010A30A500003036
:101E6A00A6003208A8003108A7000A128A1517220C
:101E7A000A128A15831203132608D4002508D300F0
:101E8A000A30A5000030A6000A30F4000030F50040
:101E9A003208F7003108F6000A128A1564220A127B
:101EAA008A15750883120313A8007408A7000A127A
:101EBA008A1517220A128A15831203132608D600D6
:101ECA002508D5000A30A5000030A6006430F400C9
:101EDA000030F5003208F7003108F6000A128A15B8
:101EEA0064220A128A15750883120313A80074085B
:101EFA00A7000A128A1517220A128A1583120313D7
:101F0A002608D8002508D7005308123E84008630D8
:101F1A000318013EFF000A128A1100210A128A15CB
:101F2A00B3003308CB005508123E840086300318EC
:101F3A00013EFF000A128A1100210A128A15B30013
:101F4A003308CA005708123E840086300318013E3F
:101F5A00FF000A128A1100210A128A15B3003308F7
:101F6A00C9003130B3003308F70000300A128A1171
:101F7A00CD270A128A1549300A128A153F2108000C
:101F8A000330831203132C060319080004302C06AD
:101F9A00031D0800DB01DB01AD305B0203180800FA
:101FAA0046300A128A15C3200A128A1549300A12C3
:101FBA008A15C3200A128A1549300A128A15C320C3
:101FCA000A128A1549300A128A15C3200A128A157A
:101FDA0031300A128A15C3200A128A1500300A12F1
:101FEA008A15C3200A128A15013083120313B3001B
:061FFA003308DB07D12FC4
:02400E003AFF77
:00000001FF
